:100000000C9434000C9446000C9446000C9446006A
:100010000C9446000C9446000C9446000C94460048
:100020000C9446000C9446000C9446000C94460038
:100030000C9446000C9446000C9446000C94460028
:100040000C9446000C944F000C9446000C9446000F
:100050000C9446000C9446000C9446000C94460008
:100060000C9446000C94460011241FBECFEFD8E03C
:10007000DEBFCDBF22E0A0E0B1E001C01D92A630FE
:10008000B207E1F70E9496000C9461010C94000005
:1000900080E184B98DEC8CBD8EB58DB508951F922D
:1000A0000F920FB60F9211242F938F939F93EF937C
:1000B000FF93909105028EB5E0910302F091040246
:1000C000E90FF11D8083809105028F5F8093050207
:1000D00080910502882304F51092050280910202A6
:1000E00020E8829FC001112480509F4F909301020D
:1000F000809300029091020281E08927809302029E
:100100008091020220E8829FC001112480509F4FFD
:100110009093040280930302FF91EF919F918F913E
:100120002F910F900FBE0F901F90189510920502FF
:1001300080E091E0909304028093030280E090E0DD
:100140002FEFE0910302F0910402E80FF91F2083E2
:10015000019680389105A9F780E891E09093040218
:100160008093030280E090E02EEEE0910302F09194
:100170000402E80FF91F2083019680389105A9F742
:100180001092020280E091E09093040280930302B7
:1001900080E891E090930102809300020E94480061
:1001A0000E94EA007894D0E0CD2F0E94F70082EE02
:1001B0008A95F1F700C06C2F8091000290910102A6
:1001C0000E94F9008AE18A95F1F700C0CF5FC8303C
:1001D00061F7EACF5D9A5E985F988AB1806E8AB9BE
:1001E00087B18F6387B98FEF8AB987B908955D9A10
:1001F00008958F929F92AF92BF92CF92DF92EF922B
:10020000FF920F931F93CF93DF93A62FFC0128E05B
:10021000629FE00DF11D112480809180A280B38047
:10022000C480D580E680F780EF01C05CDF4F488155
:1002300059816A817B81EC5BFF4F008111812281B2
:100240003381AA0FAA0FAA0FE0E25E98882D817071
:10025000880F9C2D9170892B88B9B694A794979498
:1002600087945E9AF694E794D794C794E15069F71F
:10027000E0E25E98842F8170880F902F9170892B17
:1002800088B976956795579547955E9A36952795DF
:1002900017950795E15069F700005F9800005F9A95
:1002A00000005F98A8B95D98DF91CF911F910F91E1
:1002B000FF90EF90DF90CF90BF90AF909F908F9086
:0602C0000895F894FFCF41
:00000001FF
